{
  "contractName": "Claims",
  "abi": [
    {
      "constant": true,
      "inputs": [],
      "name": "provider",
      "outputs": [
        {
          "name": "",
          "type": "address"
        }
      ],
      "payable": false,
      "stateMutability": "view",
      "type": "function"
    },
    {
      "constant": false,
      "inputs": [
        {
          "name": "_rqExpert",
          "type": "bool"
        }
      ],
      "name": "validationExpert",
      "outputs": [],
      "payable": true,
      "stateMutability": "payable",
      "type": "function"
    },
    {
      "constant": false,
      "inputs": [],
      "name": "processExpert",
      "outputs": [],
      "payable": true,
      "stateMutability": "payable",
      "type": "function"
    },
    {
      "constant": true,
      "inputs": [],
      "name": "viewRepair",
      "outputs": [
        {
          "name": "_amRepair",
          "type": "uint256"
        },
        {
          "name": "_dtRepair",
          "type": "string"
        }
      ],
      "payable": false,
      "stateMutability": "view",
      "type": "function"
    },
    {
      "constant": true,
      "inputs": [],
      "name": "viewClaim",
      "outputs": [
        {
          "name": "_idPolicy",
          "type": "uint256"
        },
        {
          "name": "_dateClaim",
          "type": "uint256"
        },
        {
          "name": "_dtLocation",
          "type": "string"
        },
        {
          "name": "_dtClaim",
          "type": "string"
        }
      ],
      "payable": false,
      "stateMutability": "view",
      "type": "function"
    },
    {
      "constant": false,
      "inputs": [],
      "name": "paidClaim",
      "outputs": [],
      "payable": true,
      "stateMutability": "payable",
      "type": "function"
    },
    {
      "constant": true,
      "inputs": [],
      "name": "claim",
      "outputs": [
        {
          "name": "idPolicy",
          "type": "uint256"
        },
        {
          "name": "dateClaim",
          "type": "uint256"
        },
        {
          "name": "dtLocation",
          "type": "string"
        },
        {
          "name": "dtClaim",
          "type": "string"
        }
      ],
      "payable": false,
      "stateMutability": "view",
      "type": "function"
    },
    {
      "constant": false,
      "inputs": [
        {
          "name": "_descExpert",
          "type": "string"
        }
      ],
      "name": "reportExpert",
      "outputs": [],
      "payable": true,
      "stateMutability": "payable",
      "type": "function"
    },
    {
      "constant": true,
      "inputs": [],
      "name": "viewExpert",
      "outputs": [
        {
          "name": "_descExpert",
          "type": "string"
        }
      ],
      "payable": false,
      "stateMutability": "view",
      "type": "function"
    },
    {
      "constant": true,
      "inputs": [],
      "name": "dtRepair",
      "outputs": [
        {
          "name": "",
          "type": "string"
        }
      ],
      "payable": false,
      "stateMutability": "view",
      "type": "function"
    },
    {
      "constant": false,
      "inputs": [
        {
          "name": "_idVoucher",
          "type": "string"
        }
      ],
      "name": "availableVoucher",
      "outputs": [],
      "payable": true,
      "stateMutability": "payable",
      "type": "function"
    },
    {
      "constant": true,
      "inputs": [],
      "name": "idVoucher",
      "outputs": [
        {
          "name": "",
          "type": "string"
        }
      ],
      "payable": false,
      "stateMutability": "view",
      "type": "function"
    },
    {
      "constant": false,
      "inputs": [],
      "name": "receivedClaim",
      "outputs": [],
      "payable": true,
      "stateMutability": "payable",
      "type": "function"
    },
    {
      "constant": true,
      "inputs": [],
      "name": "expert",
      "outputs": [
        {
          "name": "",
          "type": "address"
        }
      ],
      "payable": false,
      "stateMutability": "view",
      "type": "function"
    },
    {
      "constant": true,
      "inputs": [],
      "name": "amRepair",
      "outputs": [
        {
          "name": "",
          "type": "uint256"
        }
      ],
      "payable": false,
      "stateMutability": "view",
      "type": "function"
    },
    {
      "constant": true,
      "inputs": [],
      "name": "rqExpert",
      "outputs": [
        {
          "name": "",
          "type": "bool"
        }
      ],
      "payable": false,
      "stateMutability": "view",
      "type": "function"
    },
    {
      "constant": true,
      "inputs": [],
      "name": "getParty",
      "outputs": [
        {
          "name": "_party",
          "type": "uint8"
        }
      ],
      "payable": false,
      "stateMutability": "view",
      "type": "function"
    },
    {
      "constant": false,
      "inputs": [],
      "name": "processVoucher",
      "outputs": [],
      "payable": true,
      "stateMutability": "payable",
      "type": "function"
    },
    {
      "constant": false,
      "inputs": [
        {
          "name": "_claimant",
          "type": "address"
        },
        {
          "name": "_provider",
          "type": "address"
        },
        {
          "name": "_expert",
          "type": "address"
        }
      ],
      "name": "registerParty",
      "outputs": [],
      "payable": true,
      "stateMutability": "payable",
      "type": "function"
    },
    {
      "constant": true,
      "inputs": [],
      "name": "viewVoucher",
      "outputs": [
        {
          "name": "_idVoucher",
          "type": "string"
        }
      ],
      "payable": false,
      "stateMutability": "view",
      "type": "function"
    },
    {
      "constant": true,
      "inputs": [],
      "name": "stage",
      "outputs": [
        {
          "name": "",
          "type": "uint8"
        }
      ],
      "payable": false,
      "stateMutability": "view",
      "type": "function"
    },
    {
      "constant": false,
      "inputs": [
        {
          "name": "_idPolicy",
          "type": "uint256"
        },
        {
          "name": "_dateClaim",
          "type": "uint256"
        },
        {
          "name": "_dtLocation",
          "type": "string"
        },
        {
          "name": "_dtClaim",
          "type": "string"
        }
      ],
      "name": "registerClaim",
      "outputs": [],
      "payable": true,
      "stateMutability": "payable",
      "type": "function"
    },
    {
      "constant": false,
      "inputs": [
        {
          "name": "_amRepair",
          "type": "uint256"
        },
        {
          "name": "_dtRepair",
          "type": "string"
        }
      ],
      "name": "exchangeVoucher",
      "outputs": [],
      "payable": true,
      "stateMutability": "payable",
      "type": "function"
    },
    {
      "constant": true,
      "inputs": [],
      "name": "claimant",
      "outputs": [
        {
          "name": "",
          "type": "address"
        }
      ],
      "payable": false,
      "stateMutability": "view",
      "type": "function"
    },
    {
      "constant": true,
      "inputs": [],
      "name": "insurer",
      "outputs": [
        {
          "name": "",
          "type": "address"
        }
      ],
      "payable": false,
      "stateMutability": "view",
      "type": "function"
    },
    {
      "constant": true,
      "inputs": [],
      "name": "descExpert",
      "outputs": [
        {
          "name": "",
          "type": "string"
        }
      ],
      "payable": false,
      "stateMutability": "view",
      "type": "function"
    },
    {
      "constant": false,
      "inputs": [],
      "name": "receivedVoucher",
      "outputs": [],
      "payable": true,
      "stateMutability": "payable",
      "type": "function"
    },
    {
      "constant": true,
      "inputs": [],
      "name": "getStage",
      "outputs": [
        {
          "name": "",
          "type": "uint8"
        }
      ],
      "payable": false,
      "stateMutability": "view",
      "type": "function"
    }
  ],
  "bytecode": "0x60606040526000600c60146101000a81548160ff0219169083600a81111561002357fe5b0217905550341561003357600080fd5b611cd7806100426000396000f30060606040526004361061016a576000357c0100000000000000000000000000000000000000000000000000000000900463ffffffff168063085d48831461016f57806311d31edf146101c4578063141a98c2146101de5780631735fd0e146101e857806323fbe7f11461027d578063468af3ee146103855780634e71d92d1461038f57806356efb786146104d1578063579107f51461052357806367bc1705146105b1578063790bf9ed1461063f5780638d4238c9146106915780638f5675ab1461071f57806393bde24614610729578063a4d0a0501461077e578063a696a24b146107a7578063b4caa933146107d4578063b7387f8a14610803578063baba46b41461080d578063bc7c4e9614610879578063c040e6b814610907578063c10179701461093e578063c413e2ee146109e5578063d28720af14610a40578063dbc837c514610a95578063f069dde114610aea578063fafc407514610b78578063fcaa766414610b82575b600080fd5b341561017a57600080fd5b610182610bb9565b604051808273ffffffffffffffffffffffffffffffffffffffff1673ffffffffffffffffffffffffffffffffffffffff16815260200191505060405180910390f35b6101dc60048080351515906020019091905050610bdf565b005b6101e6610caa565b005b34156101f357600080fd5b6101fb610d62565b6040518083815260200180602001828103825283818151815260200191508051906020019080838360005b83811015610241578082015181840152602081019050610226565b50505050905090810190601f16801561026e5780820380516001836020036101000a031916815260200191505b50935050505060405180910390f35b341561028857600080fd5b610290610e12565b604051808581526020018481526020018060200180602001838103835285818151815260200191508051906020019080838360005b838110156102e05780820151818401526020810190506102c5565b50505050905090810190601f16801561030d5780820380516001836020036101000a031916815260200191505b50838103825284818151815260200191508051906020019080838360005b8381101561034657808201518184015260208101905061032b565b50505050905090810190601f1680156103735780820380516001836020036101000a031916815260200191505b50965050505050505060405180910390f35b61038d610f7a565b005b341561039a57600080fd5b6103a2611032565b60405180858152602001848152602001806020018060200183810383528581815460018160011615610100020316600290048152602001915080546001816001161561010002031660029004801561043b5780601f106104105761010080835404028352916020019161043b565b820191906000526020600020905b81548152906001019060200180831161041e57829003601f168201915b50508381038252848181546001816001161561010002031660029004815260200191508054600181600116156101000203166002900480156104be5780601f10610493576101008083540402835291602001916104be565b820191906000526020600020905b8154815290600101906020018083116104a157829003601f168201915b5050965050505050505060405180910390f35b610521600480803590602001908201803590602001908080601f0160208091040260200160405190810160405280939291908181526020018383808284378201915050505050509190505061104e565b005b341561052e57600080fd5b61053661111e565b6040518080602001828103825283818151815260200191508051906020019080838360005b8381101561057657808201518184015260208101905061055b565b50505050905090810190601f1680156105a35780820380516001836020036101000a031916815260200191505b509250505060405180910390f35b34156105bc57600080fd5b6105c46111c6565b6040518080602001828103825283818151815260200191508051906020019080838360005b838110156106045780820151818401526020810190506105e9565b50505050905090810190601f1680156106315780820380516001836020036101000a031916815260200191505b509250505060405180910390f35b61068f600480803590602001908201803590602001908080601f01602080910402602001604051908101604052809392919081815260200183838082843782019150505050505091905050611264565b005b341561069c57600080fd5b6106a4611334565b6040518080602001828103825283818151815260200191508051906020019080838360005b838110156106e45780820151818401526020810190506106c9565b50505050905090810190601f1680156107115780820380516001836020036101000a031916815260200191505b509250505060405180910390f35b6107276113d2565b005b341561073457600080fd5b61073c61148a565b604051808273ffffffffffffffffffffffffffffffffffffffff1673ffffffffffffffffffffffffffffffffffffffff16815260200191505060405180910390f35b341561078957600080fd5b6107916114b0565b6040518082815260200191505060405180910390f35b34156107b257600080fd5b6107ba6114b6565b604051808215151515815260200191505060405180910390f35b34156107df57600080fd5b6107e76114c9565b604051808260ff1660ff16815260200191505060405180910390f35b61080b6115e2565b005b610877600480803573ffffffffffffffffffffffffffffffffffffffff1690602001909190803573ffffffffffffffffffffffffffffffffffffffff1690602001909190803573ffffffffffffffffffffffffffffffffffffffff1690602001909190505061169a565b005b341561088457600080fd5b61088c6117a3565b6040518080602001828103825283818151815260200191508051906020019080838360005b838110156108cc5780820151818401526020810190506108b1565b50505050905090810190601f1680156108f95780820380516001836020036101000a031916815260200191505b509250505060405180910390f35b341561091257600080fd5b61091a61184b565b6040518082600a81111561092a57fe5b60ff16815260200191505060405180910390f35b6109e3600480803590602001909190803590602001909190803590602001908201803590602001908080601f0160208091040260200160405190810160405280939291908181526020018383808284378201915050505050509190803590602001908201803590602001908080601f0160208091040260200160405190810160405280939291908181526020018383808284378201915050505050509190505061185e565b005b610a3e600480803590602001909190803590602001908201803590602001908080601f01602080910402602001604051908101604052809392919081815260200183838082843782019150505050505091905050611961565b005b3415610a4b57600080fd5b610a53611a39565b604051808273ffffffffffffffffffffffffffffffffffffffff1673ffffffffffffffffffffffffffffffffffffffff16815260200191505060405180910390f35b3415610aa057600080fd5b610aa8611a5f565b604051808273ffffffffffffffffffffffffffffffffffffffff1673ffffffffffffffffffffffffffffffffffffffff16815260200191505060405180910390f35b3415610af557600080fd5b610afd611a85565b6040518080602001828103825283818151815260200191508051906020019080838360005b83811015610b3d578082015181840152602081019050610b22565b50505050905090810190601f168015610b6a5780820380516001836020036101000a031916815260200191505b509250505060405180910390f35b610b80611b23565b005b3415610b8d57600080fd5b610b95611bdb565b6040518082600a811115610ba557fe5b60ff16815260200191505060405180910390f35b600b60009054906101000a900473ffffffffffffffffffffffffffffffffffffffff1681565b600680600a811115610bed57fe5b600c60149054906101000a900460ff16600a811115610c0857fe5b141515610c1457600080fd5b600960009054906101000a900473ffffffffffffffffffffffffffffffffffffffff1673ffffffffffffffffffffffffffffffffffffffff163373ffffffffffffffffffffffffffffffffffffffff16141515610c7057600080fd5b811515600760009054906101000a905050506007600c60146101000a81548160ff0219169083600a811115610ca157fe5b02179055505050565b600780600a811115610cb857fe5b600c60149054906101000a900460ff16600a811115610cd357fe5b141515610cdf57600080fd5b600c60009054906101000a900473ffffffffffffffffffffffffffffffffffffffff1673ffffffffffffffffffffffffffffffffffffffff163373ffffffffffffffffffffffffffffffffffffffff16141515610d3b57600080fd5b6008600c60146101000a81548160ff0219169083600a811115610d5a57fe5b021790555050565b6000610d6c611bf2565b600554915060068054600181600116156101000203166002900480601f016020809104026020016040519081016040528092919081815260200182805460018160011615610100020316600290048015610e075780601f10610ddc57610100808354040283529160200191610e07565b820191906000526020600020905b815481529060010190602001808311610dea57829003601f168201915b505050505090509091565b600080610e1d611bf2565b610e25611bf2565b60008001549350600060010154925060006002018054600181600116156101000203166002900480601f016020809104026020016040519081016040528092919081815260200182805460018160011615610100020316600290048015610ecd5780601f10610ea257610100808354040283529160200191610ecd565b820191906000526020600020905b815481529060010190602001808311610eb057829003601f168201915b5050505050915060006003018054600181600116156101000203166002900480601f016020809104026020016040519081016040528092919081815260200182805460018160011615610100020316600290048015610f6d5780601f10610f4257610100808354040283529160200191610f6d565b820191906000526020600020905b815481529060010190602001808311610f5057829003601f168201915b5050505050905090919293565b600980600a811115610f8857fe5b600c60149054906101000a900460ff16600a811115610fa357fe5b141515610faf57600080fd5b600960009054906101000a900473ffffffffffffffffffffffffffffffffffffffff1673ffffffffffffffffffffffffffffffffffffffff163373ffffffffffffffffffffffffffffffffffffffff1614151561100b57600080fd5b600a600c60146101000a81548160ff0219169083600a81111561102a57fe5b021790555050565b6000806000015490806001015490806002019080600301905084565b600880600a81111561105c57fe5b600c60149054906101000a900460ff16600a81111561107757fe5b14151561108357600080fd5b600c60009054906101000a900473ffffffffffffffffffffffffffffffffffffffff1673ffffffffffffffffffffffffffffffffffffffff163373ffffffffffffffffffffffffffffffffffffffff161415156110df57600080fd5b81600890805190602001906110f5929190611c06565b506009600c60146101000a81548160ff0219169083600a81111561111557fe5b02179055505050565b611126611bf2565b60088054600181600116156101000203166002900480601f0160208091040260200160405190810160405280929190818152602001828054600181600116156101000203166002900480156111bc5780601f10611191576101008083540402835291602001916111bc565b820191906000526020600020905b81548152906001019060200180831161119f57829003601f168201915b5050505050905090565b60068054600181600116156101000203166002900480601f01602080910402602001604051908101604052809291908181526020018280546001816001161561010002031660029004801561125c5780601f106112315761010080835404028352916020019161125c565b820191906000526020600020905b81548152906001019060200180831161123f57829003601f168201915b505050505081565b600280600a81111561127257fe5b600c60149054906101000a900460ff16600a81111561128d57fe5b14151561129957600080fd5b600960009054906101000a900473ffffffffffffffffffffffffffffffffffffffff1673ffffffffffffffffffffffffffffffffffffffff163373ffffffffffffffffffffffffffffffffffffffff161415156112f557600080fd5b816004908051906020019061130b929190611c06565b506003600c60146101000a81548160ff0219169083600a81111561132b57fe5b02179055505050565b60048054600181600116156101000203166002900480601f0160208091040260200160405190810160405280929190818152602001828054600181600116156101000203166002900480156113ca5780601f1061139f576101008083540402835291602001916113ca565b820191906000526020600020905b8154815290600101906020018083116113ad57829003601f168201915b505050505081565b600180600a8111156113e057fe5b600c60149054906101000a900460ff16600a8111156113fb57fe5b14151561140757600080fd5b600960009054906101000a900473ffffffffffffffffffffffffffffffffffffffff1673ffffffffffffffffffffffffffffffffffffffff163373ffffffffffffffffffffffffffffffffffffffff1614151561146357600080fd5b6002600c60146101000a81548160ff0219169083600a81111561148257fe5b021790555050565b600c60009054906101000a900473ffffffffffffffffffffffffffffffffffffffff1681565b60055481565b600760009054906101000a900460ff1681565b60008090503373ffffffffffffffffffffffffffffffffffffffff16600a60009054906101000a900473ffffffffffffffffffffffffffffffffffffffff1673ffffffffffffffffffffffffffffffffffffffff16141561152957600190505b3373ffffffffffffffffffffffffffffffffffffffff16600b60009054906101000a900473ffffffffffffffffffffffffffffffffffffffff1673ffffffffffffffffffffffffffffffffffffffff16141561158457600290505b3373ffffffffffffffffffffffffffffffffffffffff16600c60009054906101000a900473ffffffffffffffffffffffffffffffffffffffff1673ffffffffffffffffffffffffffffffffffffffff1614156115df57600390505b90565b600580600a8111156115f057fe5b600c60149054906101000a900460ff16600a81111561160b57fe5b14151561161757600080fd5b600960009054906101000a900473ffffffffffffffffffffffffffffffffffffffff1673ffffffffffffffffffffffffffffffffffffffff163373ffffffffffffffffffffffffffffffffffffffff1614151561167357600080fd5b6006600c60146101000a81548160ff0219169083600a81111561169257fe5b021790555050565b33600960006101000a81548173ffffffffffffffffffffffffffffffffffffffff021916908373ffffffffffffffffffffffffffffffffffffffff16021790555082600a60006101000a81548173ffffffffffffffffffffffffffffffffffffffff021916908373ffffffffffffffffffffffffffffffffffffffff16021790555081600b60006101000a81548173ffffffffffffffffffffffffffffffffffffffff021916908373ffffffffffffffffffffffffffffffffffffffff16021790555080600c60006101000a81548173ffffffffffffffffffffffffffffffffffffffff021916908373ffffffffffffffffffffffffffffffffffffffff160217905550505050565b6117ab611bf2565b60048054600181600116156101000203166002900480601f0160208091040260200160405190810160405280929190818152602001828054600181600116156101000203166002900480156118415780601f1061181657610100808354040283529160200191611841565b820191906000526020600020905b81548152906001019060200180831161182457829003601f168201915b5050505050905090565b600c60149054906101000a900460ff1681565b600080600a81111561186c57fe5b600c60149054906101000a900460ff16600a81111561188757fe5b14151561189357600080fd5b600a60009054906101000a900473ffffffffffffffffffffffffffffffffffffffff1673ffffffffffffffffffffffffffffffffffffffff163373ffffffffffffffffffffffffffffffffffffffff161415156118ef57600080fd5b84600080018190555083600060010181905550826000600201908051906020019061191b929190611c06565b508160006003019080519060200190611935929190611c06565b506001600c60146101000a81548160ff0219169083600a81111561195557fe5b02179055505050505050565b600480600a81111561196f57fe5b600c60149054906101000a900460ff16600a81111561198a57fe5b14151561199657600080fd5b600b60009054906101000a900473ffffffffffffffffffffffffffffffffffffffff1673ffffffffffffffffffffffffffffffffffffffff163373ffffffffffffffffffffffffffffffffffffffff161415156119f257600080fd5b826005819055508160069080519060200190611a0f929190611c06565b506005600c60146101000a81548160ff0219169083600a811115611a2f57fe5b0217905550505050565b600a60009054906101000a900473ffffffffffffffffffffffffffffffffffffffff1681565b600960009054906101000a900473ffffffffffffffffffffffffffffffffffffffff1681565b60088054600181600116156101000203166002900480601f016020809104026020016040519081016040528092919081815260200182805460018160011615610100020316600290048015611b1b5780601f10611af057610100808354040283529160200191611b1b565b820191906000526020600020905b815481529060010190602001808311611afe57829003601f168201915b505050505081565b600380600a811115611b3157fe5b600c60149054906101000a900460ff16600a811115611b4c57fe5b141515611b5857600080fd5b600a60009054906101000a900473ffffffffffffffffffffffffffffffffffffffff1673ffffffffffffffffffffffffffffffffffffffff163373ffffffffffffffffffffffffffffffffffffffff16141515611bb457600080fd5b6004600c60146101000a81548160ff0219169083600a811115611bd357fe5b021790555050565b6000600c60149054906101000a900460ff16905090565b602060405190810160405280600081525090565b828054600181600116156101000203166002900490600052602060002090601f016020900481019282601f10611c4757805160ff1916838001178555611c75565b82800160010185558215611c75579182015b82811115611c74578251825591602001919060010190611c59565b5b509050611c829190611c86565b5090565b611ca891905b80821115611ca4576000816000905550600101611c8c565b5090565b905600a165627a7a7230582004e39cbf1af76e133959f5582ee843a9a55da98e18330c45e26911ccf981ef6a0029",
  "source": "pragma solidity ^0.4.17;\r\ncontract Claims {\r\n\r\n    //Structure to hold the details of a claim\r\n    struct Claim {\r\n        uint256 idPolicy;//policy number\r\n        uint256 dateClaim;//date of claim\r\n        string dtLocation;//location details\r\n        string dtClaim;//claim details\r\n    }\r\n\r\n    Claim public claim;//claim details\r\n\r\n    string public idVoucher;//voucher details\r\n\r\n    uint256 public amRepair;//repair amount\r\n    string public dtRepair;//repair details\r\n\r\n    bool public rqExpert;//expert requested\r\n    string public descExpert;//expert description details\r\n\r\n    address public insurer;//owner of the smart contract\r\n    address public claimant;//customer\r\n    address public provider;//service provider\r\n    address public expert;//expert\r\n\r\n    //contractInit = Contract initiated\r\n    //claimReg = Claim registered\r\n    //claimRec = Claim received\r\n    //voucherAva = Voucher available\r\n    //voucherRec = Voucher received\r\n    //voucherExc = Voucher exchanged\r\n    //voucherPro = Voucher in the process\r\n    //expertVal = Expert validation\r\n    //expertPrc = Expert validation in the process\r\n    //expertRep = Expert report available\r\n    //claimPaid = Payment done and closed\r\n    enum Stage {contractInit, claimReg, claimRec, voucherAva, voucherRec, voucherExc, voucherPro, expertVal, expertPrc, expertRep, claimPaid}\r\n    Stage public stage = Stage.contractInit;\r\n\r\n    //modifier to check the valid Stage\r\n    modifier validStage(Stage reqStage)\r\n    { require(stage == reqStage);\r\n      _;\r\n    }\r\n\r\n    //function - Initialize contract\r\n    function registerParty(address _claimant, address _provider, address _expert) public payable{    //constructor\r\n\r\n        //Initialize insurer with address of smart contract’s owner\r\n        insurer = msg.sender;\r\n        //Initialize claimant with address of claimant\r\n        claimant = _claimant;\r\n        //Initialize provider with address of provider\r\n        provider = _provider;\r\n        //Initialize expert with address of expert\r\n        expert = _expert;\r\n\r\n    }\r\n\r\n    //functions - Get party\r\n    function getParty() public constant returns(uint8 _party){\r\n        _party = 0;\r\n        if (claimant == msg.sender) {\r\n            _party = 1;\r\n        }\r\n        if (provider == msg.sender) {\r\n            _party = 2;\r\n        }\r\n        if (expert == msg.sender) {\r\n            _party = 3;\r\n        }\r\n    }\r\n\r\n    //event to notify claim registered\r\n    // event claimRegistered();\r\n\r\n    //modifier to check only for customer (claimant)\r\n    modifier onlyClaimant {\r\n        require(msg.sender == claimant);\r\n        _;\r\n    }\r\n\r\n    //functions - Register Claim\r\n    function registerClaim(uint256 _idPolicy, uint256 _dateClaim, string _dtLocation, string _dtClaim) public validStage(Stage.contractInit) onlyClaimant payable{\r\n    claim.idPolicy = _idPolicy;\r\n    claim.dateClaim = _dateClaim;\r\n    claim.dtLocation = _dtLocation;\r\n    claim.dtClaim = _dtClaim;\r\n    stage = Stage.claimReg;\r\n    // claimRegistered();\r\n    }\r\n\r\n    //functions - View claim\r\n    function viewClaim() public constant returns(uint256 _idPolicy, uint256 _dateClaim, string _dtLocation, string _dtClaim) {\r\n    _idPolicy = claim.idPolicy;\r\n    _dateClaim = claim.dateClaim;\r\n    _dtLocation = claim.dtLocation;\r\n    _dtClaim = claim.dtClaim;\r\n    }\r\n\r\n    //modifier to check only for owner (insurer)\r\n    modifier onlyInsurer {\r\n        require(msg.sender == insurer);\r\n        _;\r\n    }\r\n\r\n    //functions - Claim received\r\n    function receivedClaim() public validStage(Stage.claimReg) onlyInsurer payable {\r\n    stage = Stage.claimRec;\r\n    }\r\n\r\n    //functions - Voucher available\r\n    function availableVoucher(string _idVoucher) public validStage(Stage.claimRec) onlyInsurer payable{\r\n    idVoucher = _idVoucher;\r\n    stage = Stage.voucherAva;\r\n    }\r\n\r\n    //functions - View voucher\r\n    function viewVoucher() public constant returns(string _idVoucher) {\r\n    _idVoucher = idVoucher;\r\n    }\r\n\r\n    //functions - Voucher received\r\n    function receivedVoucher() public validStage(Stage.voucherAva) onlyClaimant payable{\r\n    stage = Stage.voucherRec;\r\n    }\r\n\r\n    //modifier to check only for service provider\r\n    modifier onlyProvider {\r\n        require(msg.sender == provider);\r\n        _;\r\n    }\r\n\r\n    //functions - Voucher exchanged\r\n    function exchangeVoucher(uint256 _amRepair, string _dtRepair) public validStage(Stage.voucherRec) onlyProvider payable{\r\n    amRepair = _amRepair;\r\n    dtRepair = _dtRepair;\r\n    stage = Stage.voucherExc;\r\n    }\r\n\r\n    //functions - View repair details\r\n    function viewRepair() public constant returns(uint256 _amRepair, string _dtRepair) {\r\n    _amRepair = amRepair;\r\n    _dtRepair = dtRepair;\r\n    }\r\n\r\n    //functions - Voucher in the process by owner (insurer)\r\n    function processVoucher() public validStage(Stage.voucherExc) onlyInsurer payable{\r\n    stage = Stage.voucherPro;\r\n    }\r\n\r\n    //functions - Expert validation\r\n    function validationExpert(bool _rqExpert) public validStage(Stage.voucherPro) onlyInsurer payable{\r\n    rqExpert == _rqExpert;\r\n    stage = Stage.expertVal;\r\n    }\r\n\r\n    //modifier to check only for expert\r\n    modifier onlyExpert {\r\n        require(msg.sender == expert);\r\n        _;\r\n    }\r\n\r\n    //functions - Expert validation in the process\r\n    function processExpert() public validStage(Stage.expertVal) onlyExpert payable{\r\n    stage = Stage.expertPrc;\r\n    }\r\n\r\n    //functions - Expert report available\r\n    function reportExpert(string _descExpert) public validStage(Stage.expertPrc) onlyExpert payable{\r\n    descExpert = _descExpert;\r\n    stage = Stage.expertRep;\r\n    }\r\n\r\n    //functions - View expert report\r\n    function viewExpert() public constant returns(string _descExpert) {\r\n    _descExpert = descExpert;\r\n    }\r\n\r\n    //functions - Claim paid\r\n    function paidClaim() public validStage(Stage.expertRep) onlyInsurer payable{\r\n    stage = Stage.claimPaid;\r\n    }\r\n\r\n    function getStage() public constant returns(Stage){\r\n        return (stage);\r\n    }\r\n}\r\n",
  "sourcePath": "/home/osboxes/Desktop/smartWizard/myfirstEthiriumProject/contracts/Claims.sol",
  "compiler": {
    "name": "solc",
    "version": "0.4.18+commit.9cf6e910.Emscripten.clang"
  },
  "schemaVersion": "1.0.1",
  "updatedAt": "2018-08-24T18:34:41.593Z"
}