{
  "contractName": "Claims",
  "abi": [
    {
      "constant": true,
      "inputs": [],
      "name": "provider",
      "outputs": [
        {
          "name": "",
          "type": "address"
        }
      ],
      "payable": false,
      "stateMutability": "view",
      "type": "function"
    },
    {
      "constant": false,
      "inputs": [
        {
          "name": "_rqExpert",
          "type": "bool"
        }
      ],
      "name": "validationExpert",
      "outputs": [],
      "payable": true,
      "stateMutability": "payable",
      "type": "function"
    },
    {
      "constant": false,
      "inputs": [],
      "name": "processExpert",
      "outputs": [],
      "payable": true,
      "stateMutability": "payable",
      "type": "function"
    },
    {
      "constant": true,
      "inputs": [],
      "name": "viewRepair",
      "outputs": [
        {
          "name": "_amRepair",
          "type": "uint256"
        },
        {
          "name": "_dtRepair",
          "type": "string"
        }
      ],
      "payable": false,
      "stateMutability": "view",
      "type": "function"
    },
    {
      "constant": true,
      "inputs": [],
      "name": "viewClaim",
      "outputs": [
        {
          "name": "_idPolicy",
          "type": "uint256"
        },
        {
          "name": "_dateClaim",
          "type": "uint256"
        },
        {
          "name": "_dtLocation",
          "type": "string"
        },
        {
          "name": "_dtClaim",
          "type": "string"
        }
      ],
      "payable": false,
      "stateMutability": "view",
      "type": "function"
    },
    {
      "constant": false,
      "inputs": [],
      "name": "paidClaim",
      "outputs": [],
      "payable": true,
      "stateMutability": "payable",
      "type": "function"
    },
    {
      "constant": true,
      "inputs": [],
      "name": "claim",
      "outputs": [
        {
          "name": "idPolicy",
          "type": "uint256"
        },
        {
          "name": "dateClaim",
          "type": "uint256"
        },
        {
          "name": "dtLocation",
          "type": "string"
        },
        {
          "name": "dtClaim",
          "type": "string"
        }
      ],
      "payable": false,
      "stateMutability": "view",
      "type": "function"
    },
    {
      "constant": false,
      "inputs": [
        {
          "name": "_descExpert",
          "type": "string"
        }
      ],
      "name": "reportExpert",
      "outputs": [],
      "payable": true,
      "stateMutability": "payable",
      "type": "function"
    },
    {
      "constant": true,
      "inputs": [],
      "name": "viewExpert",
      "outputs": [
        {
          "name": "_descExpert",
          "type": "string"
        }
      ],
      "payable": false,
      "stateMutability": "view",
      "type": "function"
    },
    {
      "constant": true,
      "inputs": [],
      "name": "dtRepair",
      "outputs": [
        {
          "name": "",
          "type": "string"
        }
      ],
      "payable": false,
      "stateMutability": "view",
      "type": "function"
    },
    {
      "constant": false,
      "inputs": [
        {
          "name": "_idVoucher",
          "type": "string"
        }
      ],
      "name": "availableVoucher",
      "outputs": [],
      "payable": true,
      "stateMutability": "payable",
      "type": "function"
    },
    {
      "constant": true,
      "inputs": [],
      "name": "idVoucher",
      "outputs": [
        {
          "name": "",
          "type": "string"
        }
      ],
      "payable": false,
      "stateMutability": "view",
      "type": "function"
    },
    {
      "constant": false,
      "inputs": [],
      "name": "receivedClaim",
      "outputs": [],
      "payable": true,
      "stateMutability": "payable",
      "type": "function"
    },
    {
      "constant": true,
      "inputs": [],
      "name": "expert",
      "outputs": [
        {
          "name": "",
          "type": "address"
        }
      ],
      "payable": false,
      "stateMutability": "view",
      "type": "function"
    },
    {
      "constant": true,
      "inputs": [],
      "name": "amRepair",
      "outputs": [
        {
          "name": "",
          "type": "uint256"
        }
      ],
      "payable": false,
      "stateMutability": "view",
      "type": "function"
    },
    {
      "constant": true,
      "inputs": [],
      "name": "rqExpert",
      "outputs": [
        {
          "name": "",
          "type": "bool"
        }
      ],
      "payable": false,
      "stateMutability": "view",
      "type": "function"
    },
    {
      "constant": true,
      "inputs": [],
      "name": "getParty",
      "outputs": [
        {
          "name": "_party",
          "type": "uint8"
        }
      ],
      "payable": false,
      "stateMutability": "view",
      "type": "function"
    },
    {
      "constant": false,
      "inputs": [],
      "name": "processVoucher",
      "outputs": [],
      "payable": true,
      "stateMutability": "payable",
      "type": "function"
    },
    {
      "constant": true,
      "inputs": [],
      "name": "viewVoucher",
      "outputs": [
        {
          "name": "_idVoucher",
          "type": "string"
        }
      ],
      "payable": false,
      "stateMutability": "view",
      "type": "function"
    },
    {
      "constant": true,
      "inputs": [],
      "name": "stage",
      "outputs": [
        {
          "name": "",
          "type": "uint8"
        }
      ],
      "payable": false,
      "stateMutability": "view",
      "type": "function"
    },
    {
      "constant": false,
      "inputs": [
        {
          "name": "_idPolicy",
          "type": "uint256"
        },
        {
          "name": "_dateClaim",
          "type": "uint256"
        },
        {
          "name": "_dtLocation",
          "type": "string"
        },
        {
          "name": "_dtClaim",
          "type": "string"
        }
      ],
      "name": "registerClaim",
      "outputs": [],
      "payable": true,
      "stateMutability": "payable",
      "type": "function"
    },
    {
      "constant": false,
      "inputs": [
        {
          "name": "_amRepair",
          "type": "uint256"
        },
        {
          "name": "_dtRepair",
          "type": "string"
        }
      ],
      "name": "exchangeVoucher",
      "outputs": [],
      "payable": true,
      "stateMutability": "payable",
      "type": "function"
    },
    {
      "constant": true,
      "inputs": [],
      "name": "claimant",
      "outputs": [
        {
          "name": "",
          "type": "address"
        }
      ],
      "payable": false,
      "stateMutability": "view",
      "type": "function"
    },
    {
      "constant": true,
      "inputs": [],
      "name": "insurer",
      "outputs": [
        {
          "name": "",
          "type": "address"
        }
      ],
      "payable": false,
      "stateMutability": "view",
      "type": "function"
    },
    {
      "constant": true,
      "inputs": [],
      "name": "descExpert",
      "outputs": [
        {
          "name": "",
          "type": "string"
        }
      ],
      "payable": false,
      "stateMutability": "view",
      "type": "function"
    },
    {
      "constant": false,
      "inputs": [],
      "name": "receivedVoucher",
      "outputs": [],
      "payable": true,
      "stateMutability": "payable",
      "type": "function"
    },
    {
      "constant": true,
      "inputs": [],
      "name": "getStage",
      "outputs": [
        {
          "name": "",
          "type": "uint8"
        }
      ],
      "payable": false,
      "stateMutability": "view",
      "type": "function"
    },
    {
      "inputs": [
        {
          "name": "_claimant",
          "type": "address"
        },
        {
          "name": "_provider",
          "type": "address"
        },
        {
          "name": "_expert",
          "type": "address"
        }
      ],
      "payable": true,
      "stateMutability": "payable",
      "type": "constructor"
    },
    {
      "anonymous": false,
      "inputs": [],
      "name": "claimRegistered",
      "type": "event"
    }
  ],
  "bytecode": "0x60606040526000600c60146101000a81548160ff0219169083600a81111561002357fe5b0217905550604051606080611cef8339810160405280805190602001909190805190602001909190805190602001909190505033600960006101000a81548173ffffffffffffffffffffffffffffffffffffffff021916908373ffffffffffffffffffffffffffffffffffffffff16021790555082600a60006101000a81548173ffffffffffffffffffffffffffffffffffffffff021916908373ffffffffffffffffffffffffffffffffffffffff16021790555081600b60006101000a81548173ffffffffffffffffffffffffffffffffffffffff021916908373ffffffffffffffffffffffffffffffffffffffff16021790555080600c60006101000a81548173ffffffffffffffffffffffffffffffffffffffff021916908373ffffffffffffffffffffffffffffffffffffffff160217905550505050611b838061016c6000396000f30060606040526004361061015f576000357c0100000000000000000000000000000000000000000000000000000000900463ffffffff168063085d48831461016457806311d31edf146101b9578063141a98c2146101d35780631735fd0e146101dd57806323fbe7f114610272578063468af3ee1461037a5780634e71d92d1461038457806356efb786146104c6578063579107f51461051857806367bc1705146105a6578063790bf9ed146106345780638d4238c9146106865780638f5675ab1461071457806393bde2461461071e578063a4d0a05014610773578063a696a24b1461079c578063b4caa933146107c9578063b7387f8a146107f8578063bc7c4e9614610802578063c040e6b814610890578063c1017970146108c7578063c413e2ee1461096e578063d28720af146109c9578063dbc837c514610a1e578063f069dde114610a73578063fafc407514610b01578063fcaa766414610b0b575b600080fd5b341561016f57600080fd5b610177610b42565b604051808273ffffffffffffffffffffffffffffffffffffffff1673ffffffffffffffffffffffffffffffffffffffff16815260200191505060405180910390f35b6101d160048080351515906020019091905050610b68565b005b6101db610c33565b005b34156101e857600080fd5b6101f0610ceb565b6040518083815260200180602001828103825283818151815260200191508051906020019080838360005b8381101561023657808201518184015260208101905061021b565b50505050905090810190601f1680156102635780820380516001836020036101000a031916815260200191505b50935050505060405180910390f35b341561027d57600080fd5b610285610d9b565b604051808581526020018481526020018060200180602001838103835285818151815260200191508051906020019080838360005b838110156102d55780820151818401526020810190506102ba565b50505050905090810190601f1680156103025780820380516001836020036101000a031916815260200191505b50838103825284818151815260200191508051906020019080838360005b8381101561033b578082015181840152602081019050610320565b50505050905090810190601f1680156103685780820380516001836020036101000a031916815260200191505b50965050505050505060405180910390f35b610382610f03565b005b341561038f57600080fd5b610397610fbb565b6040518085815260200184815260200180602001806020018381038352858181546001816001161561010002031660029004815260200191508054600181600116156101000203166002900480156104305780601f1061040557610100808354040283529160200191610430565b820191906000526020600020905b81548152906001019060200180831161041357829003601f168201915b50508381038252848181546001816001161561010002031660029004815260200191508054600181600116156101000203166002900480156104b35780601f10610488576101008083540402835291602001916104b3565b820191906000526020600020905b81548152906001019060200180831161049657829003601f168201915b5050965050505050505060405180910390f35b610516600480803590602001908201803590602001908080601f01602080910402602001604051908101604052809392919081815260200183838082843782019150505050505091905050610fd7565b005b341561052357600080fd5b61052b6110a7565b6040518080602001828103825283818151815260200191508051906020019080838360005b8381101561056b578082015181840152602081019050610550565b50505050905090810190601f1680156105985780820380516001836020036101000a031916815260200191505b509250505060405180910390f35b34156105b157600080fd5b6105b961114f565b6040518080602001828103825283818151815260200191508051906020019080838360005b838110156105f95780820151818401526020810190506105de565b50505050905090810190601f1680156106265780820380516001836020036101000a031916815260200191505b509250505060405180910390f35b610684600480803590602001908201803590602001908080601f016020809104026020016040519081016040528093929190818152602001838380828437820191505050505050919050506111ed565b005b341561069157600080fd5b6106996112bd565b6040518080602001828103825283818151815260200191508051906020019080838360005b838110156106d95780820151818401526020810190506106be565b50505050905090810190601f1680156107065780820380516001836020036101000a031916815260200191505b509250505060405180910390f35b61071c61135b565b005b341561072957600080fd5b610731611413565b604051808273ffffffffffffffffffffffffffffffffffffffff1673ffffffffffffffffffffffffffffffffffffffff16815260200191505060405180910390f35b341561077e57600080fd5b610786611439565b6040518082815260200191505060405180910390f35b34156107a757600080fd5b6107af61143f565b604051808215151515815260200191505060405180910390f35b34156107d457600080fd5b6107dc611452565b604051808260ff1660ff16815260200191505060405180910390f35b61080061156b565b005b341561080d57600080fd5b610815611623565b6040518080602001828103825283818151815260200191508051906020019080838360005b8381101561085557808201518184015260208101905061083a565b50505050905090810190601f1680156108825780820380516001836020036101000a031916815260200191505b509250505060405180910390f35b341561089b57600080fd5b6108a36116cb565b6040518082600a8111156108b357fe5b60ff16815260200191505060405180910390f35b61096c600480803590602001909190803590602001909190803590602001908201803590602001908080601f0160208091040260200160405190810160405280939291908181526020018383808284378201915050505050509190803590602001908201803590602001908080601f016020809104026020016040519081016040528093929190818152602001838380828437820191505050505050919050506116de565b005b6109c7600480803590602001909190803590602001908201803590602001908080601f0160208091040260200160405190810160405280939291908181526020018383808284378201915050505050509190505061180d565b005b34156109d457600080fd5b6109dc6118e5565b604051808273ffffffffffffffffffffffffffffffffffffffff1673ffffffffffffffffffffffffffffffffffffffff16815260200191505060405180910390f35b3415610a2957600080fd5b610a3161190b565b604051808273ffffffffffffffffffffffffffffffffffffffff1673ffffffffffffffffffffffffffffffffffffffff16815260200191505060405180910390f35b3415610a7e57600080fd5b610a86611931565b6040518080602001828103825283818151815260200191508051906020019080838360005b83811015610ac6578082015181840152602081019050610aab565b50505050905090810190601f168015610af35780820380516001836020036101000a031916815260200191505b509250505060405180910390f35b610b096119cf565b005b3415610b1657600080fd5b610b1e611a87565b6040518082600a811115610b2e57fe5b60ff16815260200191505060405180910390f35b600b60009054906101000a900473ffffffffffffffffffffffffffffffffffffffff1681565b600680600a811115610b7657fe5b600c60149054906101000a900460ff16600a811115610b9157fe5b141515610b9d57600080fd5b600960009054906101000a900473ffffffffffffffffffffffffffffffffffffffff1673ffffffffffffffffffffffffffffffffffffffff163373ffffffffffffffffffffffffffffffffffffffff16141515610bf957600080fd5b811515600760009054906101000a905050506007600c60146101000a81548160ff0219169083600a811115610c2a57fe5b02179055505050565b600780600a811115610c4157fe5b600c60149054906101000a900460ff16600a811115610c5c57fe5b141515610c6857600080fd5b600c60009054906101000a900473ffffffffffffffffffffffffffffffffffffffff1673ffffffffffffffffffffffffffffffffffffffff163373ffffffffffffffffffffffffffffffffffffffff16141515610cc457600080fd5b6008600c60146101000a81548160ff0219169083600a811115610ce357fe5b021790555050565b6000610cf5611a9e565b600554915060068054600181600116156101000203166002900480601f016020809104026020016040519081016040528092919081815260200182805460018160011615610100020316600290048015610d905780601f10610d6557610100808354040283529160200191610d90565b820191906000526020600020905b815481529060010190602001808311610d7357829003601f168201915b505050505090509091565b600080610da6611a9e565b610dae611a9e565b60008001549350600060010154925060006002018054600181600116156101000203166002900480601f016020809104026020016040519081016040528092919081815260200182805460018160011615610100020316600290048015610e565780601f10610e2b57610100808354040283529160200191610e56565b820191906000526020600020905b815481529060010190602001808311610e3957829003601f168201915b5050505050915060006003018054600181600116156101000203166002900480601f016020809104026020016040519081016040528092919081815260200182805460018160011615610100020316600290048015610ef65780601f10610ecb57610100808354040283529160200191610ef6565b820191906000526020600020905b815481529060010190602001808311610ed957829003601f168201915b5050505050905090919293565b600980600a811115610f1157fe5b600c60149054906101000a900460ff16600a811115610f2c57fe5b141515610f3857600080fd5b600960009054906101000a900473ffffffffffffffffffffffffffffffffffffffff1673ffffffffffffffffffffffffffffffffffffffff163373ffffffffffffffffffffffffffffffffffffffff16141515610f9457600080fd5b600a600c60146101000a81548160ff0219169083600a811115610fb357fe5b021790555050565b6000806000015490806001015490806002019080600301905084565b600880600a811115610fe557fe5b600c60149054906101000a900460ff16600a81111561100057fe5b14151561100c57600080fd5b600c60009054906101000a900473ffffffffffffffffffffffffffffffffffffffff1673ffffffffffffffffffffffffffffffffffffffff163373ffffffffffffffffffffffffffffffffffffffff1614151561106857600080fd5b816008908051906020019061107e929190611ab2565b506009600c60146101000a81548160ff0219169083600a81111561109e57fe5b02179055505050565b6110af611a9e565b60088054600181600116156101000203166002900480601f0160208091040260200160405190810160405280929190818152602001828054600181600116156101000203166002900480156111455780601f1061111a57610100808354040283529160200191611145565b820191906000526020600020905b81548152906001019060200180831161112857829003601f168201915b5050505050905090565b60068054600181600116156101000203166002900480601f0160208091040260200160405190810160405280929190818152602001828054600181600116156101000203166002900480156111e55780601f106111ba576101008083540402835291602001916111e5565b820191906000526020600020905b8154815290600101906020018083116111c857829003601f168201915b505050505081565b600280600a8111156111fb57fe5b600c60149054906101000a900460ff16600a81111561121657fe5b14151561122257600080fd5b600960009054906101000a900473ffffffffffffffffffffffffffffffffffffffff1673ffffffffffffffffffffffffffffffffffffffff163373ffffffffffffffffffffffffffffffffffffffff1614151561127e57600080fd5b8160049080519060200190611294929190611ab2565b506003600c60146101000a81548160ff0219169083600a8111156112b457fe5b02179055505050565b60048054600181600116156101000203166002900480601f0160208091040260200160405190810160405280929190818152602001828054600181600116156101000203166002900480156113535780601f1061132857610100808354040283529160200191611353565b820191906000526020600020905b81548152906001019060200180831161133657829003601f168201915b505050505081565b600180600a81111561136957fe5b600c60149054906101000a900460ff16600a81111561138457fe5b14151561139057600080fd5b600960009054906101000a900473ffffffffffffffffffffffffffffffffffffffff1673ffffffffffffffffffffffffffffffffffffffff163373ffffffffffffffffffffffffffffffffffffffff161415156113ec57600080fd5b6002600c60146101000a81548160ff0219169083600a81111561140b57fe5b021790555050565b600c60009054906101000a900473ffffffffffffffffffffffffffffffffffffffff1681565b60055481565b600760009054906101000a900460ff1681565b60008090503373ffffffffffffffffffffffffffffffffffffffff16600a60009054906101000a900473ffffffffffffffffffffffffffffffffffffffff1673ffffffffffffffffffffffffffffffffffffffff1614156114b257600190505b3373ffffffffffffffffffffffffffffffffffffffff16600b60009054906101000a900473ffffffffffffffffffffffffffffffffffffffff1673ffffffffffffffffffffffffffffffffffffffff16141561150d57600290505b3373ffffffffffffffffffffffffffffffffffffffff16600c60009054906101000a900473ffffffffffffffffffffffffffffffffffffffff1673ffffffffffffffffffffffffffffffffffffffff16141561156857600390505b90565b600580600a81111561157957fe5b600c60149054906101000a900460ff16600a81111561159457fe5b1415156115a057600080fd5b600960009054906101000a900473ffffffffffffffffffffffffffffffffffffffff1673ffffffffffffffffffffffffffffffffffffffff163373ffffffffffffffffffffffffffffffffffffffff161415156115fc57600080fd5b6006600c60146101000a81548160ff0219169083600a81111561161b57fe5b021790555050565b61162b611a9e565b60048054600181600116156101000203166002900480601f0160208091040260200160405190810160405280929190818152602001828054600181600116156101000203166002900480156116c15780601f10611696576101008083540402835291602001916116c1565b820191906000526020600020905b8154815290600101906020018083116116a457829003601f168201915b5050505050905090565b600c60149054906101000a900460ff1681565b600080600a8111156116ec57fe5b600c60149054906101000a900460ff16600a81111561170757fe5b14151561171357600080fd5b600a60009054906101000a900473ffffffffffffffffffffffffffffffffffffffff1673ffffffffffffffffffffffffffffffffffffffff163373ffffffffffffffffffffffffffffffffffffffff1614151561176f57600080fd5b84600080018190555083600060010181905550826000600201908051906020019061179b929190611ab2565b5081600060030190805190602001906117b5929190611ab2565b506001600c60146101000a81548160ff0219169083600a8111156117d557fe5b02179055507faddc3549bb0863e54a66057fae56a6bcfacc063770a40455c4592efd1d97843f60405160405180910390a15050505050565b600480600a81111561181b57fe5b600c60149054906101000a900460ff16600a81111561183657fe5b14151561184257600080fd5b600b60009054906101000a900473ffffffffffffffffffffffffffffffffffffffff1673ffffffffffffffffffffffffffffffffffffffff163373ffffffffffffffffffffffffffffffffffffffff1614151561189e57600080fd5b8260058190555081600690805190602001906118bb929190611ab2565b506005600c60146101000a81548160ff0219169083600a8111156118db57fe5b0217905550505050565b600a60009054906101000a900473ffffffffffffffffffffffffffffffffffffffff1681565b600960009054906101000a900473ffffffffffffffffffffffffffffffffffffffff1681565b60088054600181600116156101000203166002900480601f0160208091040260200160405190810160405280929190818152602001828054600181600116156101000203166002900480156119c75780601f1061199c576101008083540402835291602001916119c7565b820191906000526020600020905b8154815290600101906020018083116119aa57829003601f168201915b505050505081565b600380600a8111156119dd57fe5b600c60149054906101000a900460ff16600a8111156119f857fe5b141515611a0457600080fd5b600a60009054906101000a900473ffffffffffffffffffffffffffffffffffffffff1673ffffffffffffffffffffffffffffffffffffffff163373ffffffffffffffffffffffffffffffffffffffff16141515611a6057600080fd5b6004600c60146101000a81548160ff0219169083600a811115611a7f57fe5b021790555050565b6000600c60149054906101000a900460ff16905090565b602060405190810160405280600081525090565b828054600181600116156101000203166002900490600052602060002090601f016020900481019282601f10611af357805160ff1916838001178555611b21565b82800160010185558215611b21579182015b82811115611b20578251825591602001919060010190611b05565b5b509050611b2e9190611b32565b5090565b611b5491905b80821115611b50576000816000905550600101611b38565b5090565b905600a165627a7a72305820e64aa1bb4e00d2304a138dfe367b888a2d072840d27816868bdd0fa38f1a71590029",
  "source": "pragma solidity ^0.4.17;\r\ncontract Claims {\r\n    \r\n    //Structure to hold the details of a claim\r\n    struct Claim {\r\n        uint256 idPolicy;//policy number\r\n        uint256 dateClaim;//date of claim\r\n        string dtLocation;//location details\r\n        string dtClaim;//claim details\r\n    }\r\n    \r\n    Claim public claim;//claim details\r\n    \r\n    string public idVoucher;//voucher details\r\n    \r\n    uint256 public amRepair;//repair amount\r\n    string public dtRepair;//repair details\r\n    \r\n    bool public rqExpert;//expert requested\r\n    string public descExpert;//expert description details\r\n    \r\n    address public insurer;//owner of the smart contract\r\n    address public claimant;//customer\r\n    address public provider;//service provider\r\n    address public expert;//expert\r\n    \r\n    //contractInit = Contract initiated\r\n    //claimReg = Claim registered\r\n    //claimRec = Claim received\r\n    //voucherAva = Voucher available\r\n    //voucherRec = Voucher received\r\n    //voucherExc = Voucher exchanged\r\n    //voucherPro = Voucher in the process\r\n    //expertVal = Expert validation\r\n    //expertPrc = Expert validation in the process\r\n    //expertRep = Expert report available\r\n    //claimPaid = Payment done and closed\r\n    enum Stage {contractInit, claimReg, claimRec, voucherAva, voucherRec, voucherExc, voucherPro, expertVal, expertPrc, expertRep, claimPaid}\r\n    Stage public stage = Stage.contractInit;\r\n    \r\n    //modifier to check the valid Stage\r\n    modifier validStage(Stage reqStage)\r\n    { require(stage == reqStage);\r\n      _;\r\n    }\r\n    \r\n    //function - Initialize contract\r\n    function Claims(address _claimant, address _provider, address _expert) public payable{    //constructor\r\n                \r\n        //Initialize insurer with address of smart contract’s owner\r\n        insurer = msg.sender;\r\n        //Initialize claimant with address of claimant \r\n        claimant = _claimant;\r\n        //Initialize provider with address of provider \r\n        provider = _provider;\r\n        //Initialize expert with address of expert\r\n        expert = _expert;\r\n\r\n    }\r\n    \r\n    //functions - Get party\r\n    function getParty() public constant returns(uint8 _party){\r\n        _party = 0;\r\n        if (claimant == msg.sender) {\r\n            _party = 1;\r\n        }\r\n        if (provider == msg.sender) {\r\n            _party = 2;\r\n        }\r\n        if (expert == msg.sender) {\r\n            _party = 3;\r\n        }\r\n    }\r\n    \r\n    //event to notify claim registered\r\n    event claimRegistered();\r\n    \r\n    //modifier to check only for customer (claimant)\r\n    modifier onlyClaimant {\r\n        require(msg.sender == claimant);\r\n        _;\r\n    }\r\n    \r\n    //functions - Register Claim\r\n    function registerClaim(uint256 _idPolicy, uint256 _dateClaim, string _dtLocation, string _dtClaim) public validStage(Stage.contractInit) onlyClaimant payable{\r\n    claim.idPolicy = _idPolicy;\r\n    claim.dateClaim = _dateClaim;\r\n    claim.dtLocation = _dtLocation;\r\n    claim.dtClaim = _dtClaim;\r\n    stage = Stage.claimReg;\r\n    claimRegistered();\r\n    }\r\n    \r\n    //functions - View claim\r\n    function viewClaim() public constant returns(uint256 _idPolicy, uint256 _dateClaim, string _dtLocation, string _dtClaim) {\r\n    _idPolicy = claim.idPolicy;\r\n    _dateClaim = claim.dateClaim;\r\n    _dtLocation = claim.dtLocation;\r\n    _dtClaim = claim.dtClaim;\r\n    }\r\n    \r\n    //modifier to check only for owner (insurer)\r\n    modifier onlyInsurer {\r\n        require(msg.sender == insurer);\r\n        _;\r\n    }\r\n    \r\n    //functions - Claim received\r\n    function receivedClaim() public validStage(Stage.claimReg) onlyInsurer payable {\r\n    stage = Stage.claimRec;\r\n    }\r\n    \r\n    //functions - Voucher available\r\n    function availableVoucher(string _idVoucher) public validStage(Stage.claimRec) onlyInsurer payable{\r\n    idVoucher = _idVoucher;\r\n    stage = Stage.voucherAva;\r\n    }\r\n\r\n    //functions - View voucher\r\n    function viewVoucher() public constant returns(string _idVoucher) {\r\n    _idVoucher = idVoucher;\r\n    }\r\n    \r\n    //functions - Voucher received\r\n    function receivedVoucher() public validStage(Stage.voucherAva) onlyClaimant payable{\r\n    stage = Stage.voucherRec;\r\n    }\r\n    \r\n    //modifier to check only for service provider\r\n    modifier onlyProvider {\r\n        require(msg.sender == provider);\r\n        _;\r\n    }\r\n    \r\n    //functions - Voucher exchanged\r\n    function exchangeVoucher(uint256 _amRepair, string _dtRepair) public validStage(Stage.voucherRec) onlyProvider payable{\r\n    amRepair = _amRepair;\r\n    dtRepair = _dtRepair;\r\n    stage = Stage.voucherExc;\r\n    }\r\n    \r\n    //functions - View repair details\r\n    function viewRepair() public constant returns(uint256 _amRepair, string _dtRepair) {\r\n    _amRepair = amRepair;\r\n    _dtRepair = dtRepair;\r\n    }\r\n    \r\n    //functions - Voucher in the process by owner (insurer)\r\n    function processVoucher() public validStage(Stage.voucherExc) onlyInsurer payable{\r\n    stage = Stage.voucherPro;\r\n    }\r\n    \r\n    //functions - Expert validation\r\n    function validationExpert(bool _rqExpert) public validStage(Stage.voucherPro) onlyInsurer payable{\r\n    rqExpert == _rqExpert; \r\n    stage = Stage.expertVal;\r\n    }\r\n    \r\n    //modifier to check only for expert\r\n    modifier onlyExpert {\r\n        require(msg.sender == expert);\r\n        _;\r\n    }\r\n    \r\n    //functions - Expert validation in the process\r\n    function processExpert() public validStage(Stage.expertVal) onlyExpert payable{\r\n    stage = Stage.expertPrc;\r\n    }\r\n \r\n    //functions - Expert report available\r\n    function reportExpert(string _descExpert) public validStage(Stage.expertPrc) onlyExpert payable{\r\n    descExpert = _descExpert;\r\n    stage = Stage.expertRep;\r\n    }\r\n    \r\n    //functions - View expert report\r\n    function viewExpert() public constant returns(string _descExpert) {\r\n    _descExpert = descExpert;\r\n    }\r\n    \r\n    //functions - Claim paid\r\n    function paidClaim() public validStage(Stage.expertRep) onlyInsurer payable{\r\n    stage = Stage.claimPaid;\r\n    }\r\n    \r\n    function getStage() public constant returns(Stage){\r\n        return (stage);\r\n    }\r\n}",
  "sourcePath": "/home/osboxes/Desktop/smartWizard/SmartWizard/contracts/Claims.sol",
  "compiler": {
    "name": "solc",
    "version": "0.4.18+commit.9cf6e910.Emscripten.clang"
  },
  "schemaVersion": "1.0.1",
  "updatedAt": "2018-08-22T22:00:35.149Z"
}